:020000040800F2
:10000000580F002029020008932B0008D52400086F
:10001000912B0008AD0500088D3A00080000000093
:100020000000000000000000000000006133000834
:10003000AF05000800000000952B0008633300089E
:10004000430200084302000843020008430200087C
:10005000430200084302000843020008430200086C
:10006000430200084302000843020008430200085C
:10007000430200084302000843020008430200084C
:10008000430200084302000843020008430200083C
:10009000430200084302000843020008430200082C
:1000A000430200084302000843020008430200081C
:1000B000430200084302000843020008430200080C
:1000C00043020008430200084302000843020008FC
:1000D00043020008430200084302000843020008EC
:1000E00043020008430200084302000843020008DC
:1000F00043020008430200084302000843020008CC
:1001000043020008430200084302000843020008BB
:1001100043020008430200084302000843020008AB
:10012000430200084302000843020008430200089B
:10013000430200084302000843020008430200088B
:10014000430200084302000843020008430200087B
:10015000430200084302000843020008430200086B
:10016000430200084302000843020008430200085B
:100170004302000843020008430200080000000098
:10018000430200084302000800F002F800F03CF8C7
:100190000AA090E8000C82448344AAF10107DA45E2
:1001A00001D100F031F8AFF2090EBAE80F0013F0F8
:1001B000010F18BFFB1A43F00103184784390000F0
:1001C000A4390000103A24BF78C878C1FAD8520781
:1001D00024BF30C830C144BF04680C6070470000C1
:1001E0000023002400250026103A28BF78C1FBD840
:1001F000520728BF30C148BF0B6070471FB503F0DE
:100200008DFC1FBD10B510BD00F001F91146FFF7C0
:10021000F5FF03F04DFC00F01FF903B4FFF7F2FF08
:1002200003BC00F027F9000009488047094800474F
:10023000FEE7FEE7FEE7FEE7FEE7FEE7FEE7FEE796
:10024000FEE7FEE704480549054A064B70470000F3
:10025000FD3300088901000858090020580F0020CC
:10026000580B0020580B002053EA020C00F0698064
:100270002DE9F04B4FF00006002B1FBFB3FA83F5BA
:1002800003FA05F424FA05F65E4012BF1643B2FAEB
:1002900082F502FA05F4C5F120051EBF22FA05FC1D
:1002A00044EA0C04203556EA044C4FEA144418BFC3
:1002B000641C4FF000084FF00009904271EB030CF2
:1002C00039D3002919BFB1FA81F701FA07F6B0FA5C
:1002D00080F700FA07F6C7F120071EBF20FA07FCD7
:1002E00046EA0C062037B6FBF4FCA7EB0507103FE7
:1002F00007F01F0BCBF120060CFA0BFB2CFA06F6CD
:1003000044BFB3460026202FA4BF5E464FF0000B2B
:100310005BEA060C08BF4FF0010B19EB0B09ABFBB6
:10032000027C48EB0608C01B06FB02CC0BFB03CC8F
:1003300071EB0C01C1E70B46024641464846BDE859
:10034000F08B13B54FF000004FF00001AFF30080C9
:10035000BDE81C40704710B5203AC0F00B80B1E8F2
:100360001850203AA0E81850B1E81850A0E81850EA
:10037000BFF4F5AF5FEA027C24BFB1E81850A0E8F3
:10038000185044BF18C918C0BDE810405FEA827C0D
:1003900024BF51F8043B40F8043B08BF7047D20724
:1003A00028BF31F8023B48BF11F8012B28BF20F8C5
:1003B000023B48BF00F8012B70474FF0000200B528
:1003C000134694469646203922BFA0E80C50A0E878
:1003D0000C50B1F12001BFF4F7AF090728BFA0E826
:1003E0000C5048BF0CC05DF804EB890028BF40F8F2
:1003F000042B08BF704748BF20F8022B11F0804F34
:1004000018BF00F8012B704770477047704775465A
:1004100000F02CF8AE4605006946534620F0070070
:10042000854618B020B5FFF70DFFBDE820404FF01E
:1004300000064FF000074FF000084FF0000B21F0CE
:100440000701AC46ACE8C009ACE8C009ACE8C0099B
:10045000ACE8C0098D46704710B50446AFF3008084
:100460002046BDE81040FFF7D8BE000000487047A6
:10047000F408002001491820ABBEFEE72600020068
:1004800070470000464910B54A6822F440324A607D
:100490004A6843681A434A6001684A6822F48072D5
:1004A0004A6001684A68036942EA03224A600168B7
:1004B0004A6822F040724A6001684A6883681A43B9
:1004C0004A6001688A6822F400628A6001688A686A
:1004D000C3681A438A60816A6FF07062D142016812
:1004E0008A6822F070628A6001688A680CD0836A28
:1004F0001A438A6001688A6822F040528A60016863
:100500008A68C36A1A4301E022F040528A60016897
:100510008A6822F002028A6001688A68037E42EAE1
:1005200043028A6090F82010002901684A680FD0C1
:1005300042F400624A6001684A6822F460424A60FC
:1005400001684A68174C436A04EB43331A4301E0DD
:1005500022F400624A600168CA6A22F47002CA6228
:100560000168CA6A838B104C04EB03531A43CA62B6
:1005700001688A6822F400728A6001688A6890F8CB
:10058000303042EA43228A6001688A6822F480623D
:100590008A6001688A68406942EA8020886010BDEC
:1005A0000023014000E0FFFF0000F0FFFEE770477E
:1005B00072B6FEE730B5B3F5804F05D06FF07041ED
:1005C00040F82210002030BD8C690B688D682343F1
:1005D0004C688989240144EA0524234343EA014104
:1005E00050F82230014C23401943E9E70000F0CFD6
:1005F00010B50A6850F8223023F0010340F8223089
:100600008C68082C23D000234A682243CC681C4302
:100610000B6922431A434B690E4C1A43CB691A43A8
:100620000B6A1A434B6A1A438B6A1A43CB6A1A4302
:100630000B6B1A438B691343CA6B09681A4350F852
:100640002130A343134340F82130002010BD402344
:10065000DAE700007FFF0F0030B5D1E9003443EA4C
:1006600004138C688D89240244EA054423430C8AD0
:10067000094D00EB820005EB045423430C7D6D0112
:1006800005EB0464896923430B43416801F0404151
:100690000B434360002030BD0000F0FF78B500241C
:1006A000009490F83C20012A19D0012280F83C20C7
:1006B0000A6807230568092A13D9EE680A3A02EB8B
:1006C000420293409E43EE600B788A680A3B03EB3C
:1006D00043039A400368DD682A43DA6010E0022091
:1006E00078BD2E6902EB420293409E432E610B7847
:1006F0008A6803EB43039A4003681D692A431A6121
:100700004A681F23072A13D205686E6B521E02EB3C
:10071000820293409E436E630B790A885B1E92B2FD
:1007200003EB83039A4003685D6B2A435A6327E017
:1007300005680D2A12D22E6BD21F02EB8202934063
:100740009E432E630B790A88DB1F92B203EB83036F
:100750009A4003681D6B2A431A6311E0EE6A0D3A52
:1007600002EB820293409E43EE620B790A880D3BB6
:1007700092B203EB83039A400368DD6A2A43DA628C
:10078000164B0568144A9D4206D10D68122D03D1FF
:10079000556845F48005556005689D4218D10B6881
:1007A000102B01D0112B13D1536843F40003536075
:1007B000096810290CD10A490A4A0968B1FBF2F10B
:1007C00001EB8101490000E0491E00910029FBD1A5
:1007D00080F83C40002078BD00230140002001400B
:1007E0001400002040420F0070B504004FF00005D7
:1007F00003D0206C002610B107E0012070BD204618
:1008000000F01CF8666484F83C60206CC00610D4CC
:10081000206C20F4885040F0020020642046FFF74E
:1008200031FE6664206C20F0020040F0010020647C
:1008300000E0012584F83C60284670BD30B587B0E3
:10084000044614216846FFF7B8FD1949206888421C
:100850002CD118480024016841F4807101600068BF
:1008600000F48070059013481438016841F00101CC
:100870000160016801F001010591016841F0020188
:1008800001600068032500F0020005901320CDE907
:10089000000569460294084800F05EF80120CDE9A1
:1008A000000569460294054800F056F807B030BDCF
:1008B0000020014044380240000002400004024091
:1008C00070B5044600F046F90546601C02D00448A5
:1008D0000078044400F03EF9401BA042FAD370BDFA
:1008E00008000020F0B587B014216846FFF765FDC9
:1008F00015480168002924D1012101601348002412
:10090000016841F0010101600068022500F001006A
:1009100005904FF4F060CDE9000502AA03260C27EC
:1009200082E8D00069460A4800F016F84CF6B30099
:10093000CDE9000502AA694682E8D000054800F02A
:100940000BF807B0F0BD000000000020383802406E
:1009500000100240000C02402DE9F84FDFF8BCA166
:100960000022012503264FF00F090AF1040BAAF11A
:10097000040E00BF0B6805FA02F42340A34270D1B5
:100980000F7907F00307012F01D0022F16D18768D6
:100990004FEA420806FA08FC27EA0C07D1F80CC017
:1009A0000CFA08FC4CEA070CC0F808C04768A743DB
:1009B0000C79C4F3001494403C4344600C79E44344
:1009C000A4070AD0C4684FEA420C06FA0CF7BC43ED
:1009D0008F6807FA0CF72743C7600C7904F003040B
:1009E000022C12D1D40800EB840CDCF8204057070D
:1009F000FF0E09FA07F824EA0804D1F8108008FA73
:100A000007F848EA0408CCF8208004684FEA420C52
:100A100006FA0CF7BC430F7907F0030707FA0CF747
:100A2000274307604C6814F4403F70D03C4C276863
:100A300047F480472760246822F0030704F48044C9
:100A40000094384C07EB040CDCF8084897074FEA91
:100A5000177809FA08F7BC43334FB84202D1002790
:100A600024E054E0314FB84201D101271EE0304F5D
:100A7000B84201D1022719E02E4FB84201D1032715
:100A800014E02D4FB84201D104270FE02B4FB8429C
:100A900001D105270AE02A4FB84201D1062705E017
:100AA000284FB84201D1072700E0082707FA08F7C6
:100AB0002743CCF80878DAF800405746D1F804C04C
:100AC0009C435FEACC2C00D51C433C60DBF8004023
:100AD0005F46D1F804C09C435FEA8C2C00D51C43D0
:100AE0003C60DEF800407746D1F804C09C435FEAE2
:100AF0008C3C00D51C433C60084F083F3C68D1F853
:100B000004C09C435FEACC3C00D51C433C60521CB3
:100B1000102AFFF42FAFBDE8F88F0000083C014019
:100B2000443802400030014000000240000402400E
:100B300000080240000C0240001002400014024075
:100B400000180240001C02400AB18161704709048C
:100B5000FBE70000014880687047000008000020A3
:100B600070B5040025D094F83D00002520B984F824
:100B70003C50204600F0B8F8242084F83D0020685E
:100B8000016821F0010101602068016841F4004121
:100B900001602068016821F40041016000F0B4FDAB
:100BA0004D4A6168914201D84C4900E04C49884265
:100BB00001D2012070BD4B492368B0FBF1F15E68A2
:100BC00026F03F060E435E606368934206D94FF4F9
:100BD000967359434FF47A73B1FBF3F12368491CC0
:100BE0001E6A26F03F06314319626168914210D8AF
:100BF0004900401EB0FBF1F2521CC2F30B02042A62
:100C000001D2042022E0B0FBF1F0401CC0F30B0045
:100C10001CE0A268F2B301EBC10303EB0116431E13
:100C2000B3FBF6F35B1C43F480431B0549D092B33E
:100C300001EBC10202EB0111401EB0FBF1F0401CC0
:100C4000C0F30B0040F4804040F400402168CA69C2
:100C50004CF6FF739A431043C861D4E9071001436F
:100C60002068026822F0C00211430160D4E9030148
:100C700001432068826848F2FF339A431143816040
:100C8000D4E9050108432168CA6822F0FF02104335
:100C9000C86001E00EE016E02068016841F0010143
:100CA00001602564202084F83D00256384F83E50CF
:100CB000002070BD01EB4106431EB3FBF6F35B1C45
:100CC000B3E70120C2E701EB4101401EB0FBF1F0A8
:100CD000401CC0F30B00B7E7A086010080841E0013
:100CE00000093D0040420F00F0B587B004461421D2
:100CF0006846FFF762FB2768234CDFF888C00022B4
:100D0000214912230325042620481034674518D1B1
:100D10000F6847F002070F60096802AF01F0020197
:100D20000591C021CDE9001387E864006946FFF70B
:100D300013FE206840F400102060206800F40010CA
:100D40001CE0DFF84CC0674519D10F6847F0020777
:100D50000F60096802AF01F0020105914FF4406194
:100D6000CDE9001387E864006946FFF7F5FD2068C8
:100D700040F480002060206800F48000059007B0F7
:100D8000F0BD000000540040303802400004024032
:100D9000005800402DE9FF41044600688168009139
:100DA0007749784E4FF04027884201D1324600E023
:100DB0003A469268019240688846029001D13046D6
:100DC00000E038464068039060684FF00105B0F5D8
:100DD000007F1CD0D8B1900705D50398000602D536
:100DE000204601F0A9FB0098C0070FD002984006EA
:100DF0007FD521682046CA68E16A8B1CE3620A80BD
:100E0000618E491E6186618E002967D071E000986D
:100E1000800719D50298000616D5616A20468A1CFB
:100E2000626222680988D160618D491E6185618D89
:100E300051B901684A6822F0A0024A60418E19B98E
:100E400080F8415000F0A0F80198C00705D0039841
:100E5000400602D5204601F03FFB0198400622D50E
:100E6000039880061FD52168414501D1304600E036
:100E70003846406820F0600101D1304600E0384635
:100E800041602068416821F0A00141602068C1688C
:100E90008068019084F84150606C40F0020060640A
:100EA000204600F072F80098000767D50298800687
:100EB00064D52068416821F0A00141602168414566
:100EC00001D1304600E03846406820F0600000D094
:100ED0003E46706020688068009043E001684A6880
:100EE00022F060024A60418D19B980F8415000F04B
:100EF0004BF8009840061ED5029880061BD5206846
:100F0000416821F0600141602168414501D13046CE
:100F100000E03846406820F0A00101D1304600E0F2
:100F20003846416084F84150606C40F002006064D3
:100F3000204600F02AF8019800071FD50398800684
:100F40001CD52168414501D1304600E03846406853
:100F500020F0A00000D03E4670602068416821F07B
:100F60006001416084F84150606C40F004006064AE
:100F700004B02046BDE8F04100F007B8BDE8FF81AD
:100F80000038004000340040704770472DE9F047BA
:100F9000040005D094F841004FF0000818B109E0B2
:100FA0000120BDE8F08784F8408051486063204606
:100FB00000F0A6F8022684F841602068C16940F676
:100FC000BF77B943C1612068066260694FF4007958
:100FD00002282FD0E06870B12025A068202800D812
:100FE0006D00012000F02AFA216949451FD1E1680E
:100FF00019B1A90002E01025EFE7E900B0FBF1F01C
:1010000000EB800061694000B0FBF1F0401D0A2157
:10101000B0FBF1F000F00101401A40080902821E05
:10102000FE2A09D3606C40F010006064B8E7B0FBA2
:10103000F5F0E5E702200021226908430243206819
:101040000262D4E901010843A269E168114308433F
:101050002168CA69BA43104340F40060C861206A3D
:1010600001283AD12348606323482168234A4FF07E
:101070004023814201D1114600E01946C96921EAA5
:10108000070101D1154600E01D46E9612168814252
:1010900001D1114600E019460E622568854201D152
:1010A000114600E01946C9698EB2616849451BD0F6
:1010B000D1B100212789B4F80CC047EA0C07B4F875
:1010C00018C04CEA010C47EA0C07B9B2314341F4AD
:1010D0000061854200D01A46D161C4F844800120E5
:1010E00084F8410000205CE74FF48071E2E70000E3
:1010F00099250008950D0008003800400034004094
:1011000070B58AB0054614216846FFF756F90024E9
:10111000059406940794089427492868884248D182
:101120000120059032200225CDE9060505A800F032
:10113000B3F908B1FFF73CFA2048016841F40041D7
:101140000160006800F4004009901C4810380168F4
:1011500041F001010160016801F00101099101689C
:1011600041F0020101600068062600F002000990CB
:101170004FF400400090CDE90154CDE903466946A3
:101180000F48FFF7E9FB28200090CDE90154CDE995
:1011900003460C4E69463046FFF7DEFB10200090F8
:1011A000CDE901540720CDE9034069463046FFF7F9
:1011B000D3FB0AB070BD0000003C00404038024044
:1011C00000000240000402407047704702488168F6
:1011D0000278114481607047080000200B4810B568
:1011E000016841F400710160016841F480610160AF
:1011F000016841F480710160032000F061F80F2064
:1012000000F006F800F024F8002010BD003C024079
:1012100070B50D4D04464FF47A712878B1FBF0F0AB
:101220000A490968B1FBF0F000F056FF48B9102CEC
:1012300007D200222146501E00F022F800206C60E8
:1012400070BD012070BD00000800002014000020C7
:101250000A4808B5016841F480410160006800F463
:10126000804000900548001F016841F080510160F6
:10127000006800F08050009008BD00004438024033
:10128000F0B40E4B1B680C46C3F30223C3F10705F1
:10129000042D00D90425191D072901D2002300E0DF
:1012A000DB1E012606FA05F1491E214099409E40A9
:1012B000761E16403143F0BC02F0E9BB0CED00E0B5
:1012C000064900F0070208684FF6FF03184040EA9D
:1012D0000220034A10430860704700000CED00E054
:1012E0000000FA052DE9F0418AB0040005D094F819
:1012F000BD042668002520B108E001200AB0BDE841
:10130000F08184F8BC54204600F05EF8032084F895
:10131000BD04F06BC00500D42561206802F044FBD9
:1013200004F11001282288466846FFF714F894E873
:101330000F0002F017FA0226C8BB0021206802F055
:1013400077FB002001270EE000EBC00104EB8101D8
:1013500081F83D7001F83C0F08810D71CD600D6181
:10136000401CC0B28D6161688142EDD8002011E05F
:1013700000EBC00104EB810181F87D5281F87C0211
:1013800081F88052C1F88852C1F88C52401CC0B21A
:10139000C1F8945261688142EAD8282241466846E1
:1013A000FEF7D9FF94E80F0002F044FA10B184F878
:1013B000BD64A2E784F8385084F8BD74206802F058
:1013C0002BFA00209AE7000010B586B004461421DD
:1013D0006846FEF7F2FF2068B0F1A04F27D115480C
:1013E0000021026842F001020260006800F0010082
:1013F00005904FF4C05000900220CDE90101032078
:1014000003900A20049069460B48FFF7A5FA0948A3
:10141000001D016841F08001016006481430016838
:1014200041F480410160006800F48040059006B0FE
:1014300010BD00003038024000000240014600208C
:10144000012907D11049096811F4000103D00129CD
:1014500000D10E4870470C48001F0168006849021F
:1014600000F03F0001D50A4900E00A49064AB1FBF5
:10147000F0F07C321168C1F3881141431068C0F369
:101480000270B1FBF0F07047083802400080BB00EA
:1014900000127A000024F4002DE9F84305460068A4
:1014A0004FF00109C1074FF0000601D1400727D5D1
:1014B000DFF80C81C8F86860FFF74CFB0746414C29
:1014C00005E000BFFFF746FBC01B022857D8206885
:1014D0000001F7D468688101287A41EA007039492F
:1014E00084310860C8F86890FFF734FB074604E0D1
:1014F000FFF730FBC01B022841D820680001F7D558
:101500002878800752D52F484030016841F080513B
:10151000016000682C4C00F080500090206840F47E
:1015200080702060FFF716FB074604E0FFF712FB10
:10153000C01B022823D82068C005F7D5214C703481
:10154000206810F4407020D0A98901F440718142D4
:101550001BD020681D4920F44070C1F800900E6037
:1015600020602068C00710D0FFF7F4FA064641F269
:10157000883707E0FFF7EEFA801BB84202D9032054
:10158000BDE8F88320688007F4D5E9680D48C1F309
:1015900001220830032A0BD0016821F4F811016000
:1015A0002068A989C1F30B01084320600020E7E708
:1015B0000268074B22F4F81219400A430260EFE771
:1015C000000047420038024000700040400E474291
:1015D000FFFCFF0F2DE9F0470E46050065D0DFF850
:1015E0001481D8F80000F7B200F00700B04207D22B
:1015F00088F80070D8F8000000F00700B04254D11D
:1016000028683D4C810712D5400703D5206840F477
:10161000E05020602878000703D5206840F460403F
:1016200020602068A96820F0F00008432060287836
:10163000C0072DD0304968680839012812D0022827
:1016400013D0032811D00968890700292DDA2168F1
:1016500021F0030101432160FFF77CFA814641F24A
:10166000883A0EE009688903EFE709688901ECE729
:10167000FFF770FAA0EB0901514502D90320BDE83C
:10168000F0872068696800F00C00B0EB810FEFD1A3
:10169000D8F80010404601F00701B14207D90770A1
:1016A000006800F00700B04201D00120E7E7287889
:1016B000400705D52068E96820F4E0500843206021
:1016C0002878000706D52068296920F4604040EAA0
:1016D000C100206000F038F82168084AC1F3031106
:1016E000515CC8400649086006480068FFF790FD55
:1016F0000020C4E7003C024008380240263B0008B6
:10170000140000200C000020044805490068096806
:10171000044AC1F38221515CC84070471400002084
:1017200008380240363B000804480549006809684B
:10173000044AC1F34231515CC84070471400002094
:1017400008380240363B0008154810B5006810F014
:101750000C02144813D04110042A0FD0082A0ED1CD
:101760000F4C241F2268236802F03F025B0207D55A
:101770002068C0F38810A0FB010106E0084610BDF8
:101780002168C1F38811A1FB00010023FEF76CFD65
:101790002168C1F30141491C4900B0FBF1F010BDC3
:1017A000083802400024F4002DE9F84F04006ED000
:1017B0002078DFF84C93C007A9F104054AD009F15D
:1017C00004000168C1F38101012908D00068C0F359
:1017D000810002280AD1D9F80000400206D5286805
:1017E000800337D560680028E1D033E06068B0F549
:1017F000803F10D0B0F5A02F286810D020F48030A2
:101800002860286820F4802028606068A8B1FFF76D
:10181000A1F906460DE0286840F48030F4E740F472
:1018200080202860F7E700BFFFF794F9801B642849
:1018300073D828688003F7D50CE0FFF78BF90646CC
:1018400005E000BFFFF786F9801B6428F0D8286800
:101850008003F7D42078DFF8AC8280074FF0000ACD
:101860003ED5A748001D016811F00C0F08D0006894
:10187000C0F3810002280BD1D9F80000400207D440
:101880002868800716D5E068012800D112E033E10E
:10189000E068B8B10120C8F80000FFF75BF9064620
:1018A00005E000BFFFF756F9801B0228C0D8286862
:1018B0008007F7D52868216920F0F80040EAC100C8
:1018C00028600DE0C8F800A0FFF744F9064604E0E0
:1018D000FFF740F9801B02281FD828688007F7D43B
:1018E0002078000722D5864F87486169703771B12B
:1018F00001210160FFF72EF9064604E0FFF72AF9FF
:10190000801B022809D838688007F7D50EE0C0F898
:1019100000A0FFF71FF9064605E082E0FFF71AF97D
:10192000801B02287DD838688007F7D420784007CC
:1019300068D5DFF8CCB100270BF13C0BDBF80000D9
:10194000C0000BD4DBF8001041F08051CBF8001040
:10195000DBF80000012700F0805000906B4E3068EB
:10196000C00510D4306840F480703060FFF7F2F8A2
:10197000009005E0FFF7EEF80099401A022850D8D1
:101980003068C005F6D55E4EA0686C3601280FD0D1
:101990000528306810D020F001003060306820F059
:1019A00004003060A068B8B1FFF7D4F800900FE0F1
:1019B000306840F00100F4E740F004003060F7E7E1
:1019C000FFF7C8F80099411A41F28830814266D881
:1019D00030688007F4D50EE0FFF7BCF8009007E010
:1019E000FFF7B8F80099411A41F28830814256D881
:1019F00030688007F4D42FB1DBF8001021F080515B
:101A0000CBF80010A069C8B33D49091D0968C1F3AE
:101A1000810102294AD00228504607D0C8F8600048
:101A200000E03CE0FFF796F804463BE04746C8F884
:101A30006000FFF78FF8064605E000BFFFF78AF861
:101A4000801B02282BD828688001F7D4D4E907012D
:101A50000843A16A2E4A490802EB0141626A41EA41
:101A60008211084394F82C1040EA0161C9F8001073
:101A700001203866FFF76EF8044606E03EE000BF3E
:101A8000FFF768F8001B022809D828688001F7D5FD
:101A900034E000BFFFF75EF8001B022802D90320E4
:101AA000BDE8F88F28688001F4D427E00128F7D03A
:101AB000D9F80000E26900F4800191421CD1226A49
:101AC00000F03F01914217D147F6C071626A0140B0
:101AD000B1EB821F10D1A26A4FF0FF3300F4403106
:101AE00003EB5202B1EB024F06D194F82C1000F038
:101AF0007060B0EB016F01D00120D1E70020CFE78B
:101B00000438024000004742800E47420070004007
:101B10000000FFFF2DE9FE430446002603200D468A
:101B200084F83400606C03285ED0B5F5805F5BD02C
:101B30004FF4006700204FF08068BD421FD18146FE
:101B4000009001900021206801F03BF8800113D43F
:101B50006946204601F0C6FA07000DD101984003FE
:101B600034D5B4F850000104206801F056F807009D
:101B700002D10221206823E0A06B384328E01DB188
:101B8000A06B40F0006023E08146009001900021AE
:101B9000206801F016F88001EED46946204601F075
:101BA000A1FA0700E8D10198C0030FD5B4F850009E
:101BB0000104206801F031F80700DDD10021206820
:101BC00001F077F80700D7D14F46D5E74746D3E76E
:101BD000A063A06B144F4FF0010848B120688763E1
:101BE00084F8348001260EE0A06B40F08050EFE7CF
:101BF000211DD4E9050C0EC9CDE90050CDF808C06F
:101C0000206800F0E1FF4FF40071206801F038F81F
:101C100028B121688F63A16B0143A163012684F879
:101C200034803046BDE8FE83FF054000F0B5426ECB
:101C3000920F0A70426EC2F383624A70426EC2F320
:101C400001628A70426E120CCA70B0F86420120AE7
:101C50000A7190F864204A71826E120DCA80826EF9
:101C6000C2F303420A72B0F86820C2F3C0324A726B
:101C7000B0F86820C2F380328A72B0F86820C2F3EC
:101C80004032CA72B0F86820C2F300320A730026EC
:101C90004E73426C4FF40075012462B1012A3AD0B0
:101CA000026847499163816B41F08051816380F8FC
:101CB00034400120F0BDB0F86820C36E9205120DCB
:101CC00042EA93720A61C26EC2F3C2620A75C26EC0
:101CD000C2F302624A75C26EC2F342528A75C26E84
:101CE000C2F38242CA75C26EC2F3C2320A760A6970
:101CF000521C42650B7E03F007039B1C9A40426511
:101D00000B7A03F00F0704FA07F383655B0A5A4363
:101D1000C0E917250EE090F86820C36E9206920A7B
:101D200042EA13420A610A69521C92024265C0E902
:101D30001652056630F86C2FC2F3803201F8192F65
:101D40000288C2F3C6124A70027802F07F028A70DB
:101D50004268D20FCA704268C2F341720A71426887
:101D6000C2F382624A714268C2F383528A71426846
:101D7000C2F34052CA710E724268C2F300424A7204
:101D80008288C2F3C0328A728288C2F38032CA72F9
:101D90008288C2F340320A738288C2F300324A73E7
:101DA0008288C2F381228A738288C2F30122CA73B5
:101DB0000079C0F3460008744C740020F0BD0000A8
:101DC000FF05400070B504000ED094F834000025E3
:101DD00018B92577204600F04FF8032084F8340026
:101DE000204600F00BF808B1012070BDA563256303
:101DF000012084F83400002070BD0000FEB50025ED
:101E0000044676200095CDE9015029460B460A4646
:101E1000206800F0D9FE48BB154E46F8A05F206848
:101E200000F0E4FE012535600220FEF749FD204662
:101E300001F03CFA30B100BF84F83450A16B01438B
:101E4000A16313E0204601F0BAF90028F4D14FF461
:101E50000071206800F014FF002808D022680549AE
:101E60009163A16B0143A16384F834500120FEBD4E
:101E700000802542FF054000F0B587B004461421DC
:101E80006846FEF79AFA1D492068884233D11C48FB
:101E90000024016841F400610160006800F4006002
:101EA000059017481438016841F004010160016889
:101EB00001F004010591016841F00801016000682A
:101EC000022500F0080005904FF4F850CDE9000518
:101ED00002AA03260C2782E8D00069460948FEF7CB
:101EE0003BFD0420CDE9000502AA694682E8D00046
:101EF0000548FEF731FD07B0F0BD0000002C0140A1
:101F00004438024000080240000C024070B5040052
:101F100009D0606A002540B125616561A56294F829
:101F2000510040B10CE0012070BD6068B0F5827FC7
:101F3000F4D0E561F2E784F85050204600F044F810
:101F4000022084F851002068016821F040010160FE
:101F5000A088218900F4827001F404410843A1891A
:101F600001F400610843217C01F002010843217D56
:101F700001F001010843218B01F400710843217F26
:101F800001F03801084394F8201001F08001084363
:101F9000218D01F40051084321680860A0690421E3
:101FA00001EA104094F8241001F010010843216860
:101FB00048602068C16921F40061C1616565012044
:101FC00084F85100002070BD70B586B0044614211D
:101FD0006846FEF7F2F9234E2268002122480223C8
:101FE00003240525B2421AD11F4A1432166846F45A
:101FF00080561660126802F480520592026842F020
:1020000001020260006802AA00F00100059082E867
:102010003200E020CDE90003694614481DE0144E6B
:10202000B2421CD1104A1032166846F4804616603F
:10203000126802F480420592026842F002020260D5
:10204000006802AA00F00200059082E832004FF416
:102050006040CDE9000369460648FEF77DFC06B006
:1020600070BD0000003001403038024000000240E6
:10207000003800400004024070B515460E460400CA
:1020800003D094F8490010B107E0012070BD002092
:1020900084F84800204600F01DF804F1080120688B
:1020A000FEF7A6FA3146A2682068FEF7D5FAD4E911
:1020B00001022946236BFEF77DFA2168A06851F8DA
:1020C000202042F0010241F82020012084F849003C
:1020D000002070BDFEF706BC10B5401EB0F1807F39
:1020E00001D3012010BD4FF0E02460610F21601783
:1020F00001F0CDFC0020A06107202061002010BD70
:1021000010B590F83C20012A22D0012280F83C2012
:10211000CA688C6822F4407222434C6822F48062C0
:1021200022430C6822F4006222430C6922F480529C
:1021300022434C6922F400522243C969002322F44D
:1021400080420A4301684A6480F83C30002010BD98
:10215000022010BD70B590F83C20012A32D0012435
:1021600080F83C40022280F83D2003685A689D6850
:1021700022F070060A6832435A60134B02689A4292
:1021800014D0B2F1804F11D0104B9A420ED0104BA8
:102190009A420BD00F4B9A4208D00F4B9A4205D06F
:1021A0000E4B9A4202D00E4B9A4204D1496825F058
:1021B00080031943916080F83D40002180F83C1075
:1021C000084670BD022070BD0000014000040040C0
:1021D00000080040000C00400004014000400140A5
:1021E0000018004010B586B0044614216846FEF77A
:1021F000E4F80E492068884216D10D480021026893
:1022000042F010020260006800F0100005904FF4E8
:10221000804000900220CDE901010120CDE90310AA
:1022200069460448FEF798FB06B010BD0000014067
:10223000303802400010024070B5044690F83C006F
:1022400000260D4601280FD0012084F83C006AB119
:10225000042A1DD0082A2FD00C2A3FD001260020A6
:1022600084F83C00304670BD022070BD206801F04B
:1022700031F92068816941F0080181612068816934
:1022800021F004018161206881692A69114311E00C
:10229000206801F04FF92068816941F40061816193
:1022A0002068816921F480618161206881692A69DF
:1022B00041EA02218161D2E7206801F071F92068CA
:1022C000C16941F00801C1612068C16921F00401C0
:1022D000C1612068C1692A69114311E0206801F0D9
:1022E00093F92068C16941F40061C1612068C16946
:1022F00021F48061C1612068C1692A6941EA022133
:10230000C161ACE710B5040003D094F83D0010B1F2
:1023100007E0012010BD002084F83C00204600F0BA
:102320001FF8022084F83D00211D206801F06EF89E
:10233000012084F8460084F83E0084F83F0084F8C9
:10234000400084F8410084F8420084F8430084F897
:10235000440084F8450084F83D00002010BD0000D2
:1023600008B500680649884208D10648016841F06E
:1023700001010160006800F00100009008BD00004C
:10238000000001404438024070B5040004D094F8C5
:102390003D00002510B106E0012070BD84F83C50DE
:1023A000204600F023F8242084F83D002068C1680E
:1023B00021F40051C160204601F04EF92068016906
:1023C00021F4904101612068416921F02A014161B5
:1023D0002068C16841F40051C1602564202084F860
:1023E0003D0084F83E00002070BD0000F0B587B0CD
:1023F000044614216846FDF7E0FF304B27680022B1
:102400002F490224032507262E489F4219D12C4B21
:1024100014331F6847F010071F601B6803F0100398
:1024200005930B6843F001030B60096802AB01F0F0
:10243000010105916902CDE9001483E86400694651
:102440001AE01F4BDFF880C01033674518D11F68B2
:1024500047F400371F601B6803F4003305930B68D3
:1024600043F001030B60096801F0010105910C21A3
:10247000CDE9001469461CE0FEF76EFA07B0F0BD26
:1024800012488742FAD1186840F480201860186812
:1024900000F480200590086840F008000860086893
:1024A000694600F0080005904FF44070CDE9000443
:1024B000074802AF87E86400DEE700000010014033
:1024C0003038024000000240004400400048004014
:1024D000000C0240FEE7000070B515490268154B7C
:1024E0004FF040248A4201D11A4600E02246D568C6
:1024F000C26A961CC6621580428E521E4286428E69
:10250000002A14D102688A4201D1194600E021460E
:10251000496821F0600100D023465960418D0029AF
:1025200005D14FF0010180F84110FEF72DFD70BD7F
:10253000003800400034004070B5416A144B8A1CDA
:10254000426205680988134A4FF040249D4201D138
:10255000154600E02546E960418D491E4185418DC3
:10256000002914D10168994201D1114600E02146A9
:10257000496821F0A00100D022465160418E002917
:1025800005D14FF0010180F84110FEF7FDFC70BD50
:1025900000380040003400407CB50168044688687B
:1025A000009094F841000125042834D10098C00718
:1025B00018D04868C043400614D4C9682046E26A6F
:1025C0001180E16A891CE162618E491E6186618E1B
:1025D00041B901684A6822F060024A6080F84150BF
:1025E000FEF7F2FD0098400615D520684168C94302
:1025F000890610D4416821F0600141602068C168FB
:102600008068019084F84150606C40F00200606482
:102610002046FEF7BAFC94F84100032834D1009814
:10262000800719D521684868C043000614D4626A3F
:1026300020461288CA60616A891C6162618D491EE8
:102640006185618D41B901684A6822F0A0024A6043
:1026500080F84150FEF7B9FD0098000714D52068B6
:102660004168C94389060FD4416821F0A001416047
:1026700020688068009084F84150606C40F004004D
:1026800060642046FEF781FC7CBD00007FB500241D
:1026900015480094019402941249039401604FF488
:1026A0008031C0E901140461047680F820400F49AC
:1026B000C0E90A140125C561C46080F83040456155
:1026C000FEF792F808B1FDF773FFCDE900456946C2
:1026D00005480294FDF7E2FF002801D0FDF768FFEE
:1026E0007FBD000000200140180000200100000F05
:1026F00000B587B01C216846FDF75FFE16484FF015
:1027000020414FF4805201601449416000218160F2
:10271000C160016141618161C1610162C0E9091269
:10272000C16201634163816341640F20FF22009015
:10273000CDE901020390102004901120CDE905019C
:10274000002269460448FFF797FC002801D0FDF7F6
:102750002FFF07B000BD000060000020040100A0B2
:102760002DE9F04786B014216846FDF726FE44485F
:102770000024016841F004010160016801F00401D6
:102780000591016841F080010160016801F080015C
:102790000591016841F001010160016801F001014A
:1027A0000591016841F002010160016801F0020138
:1027B0000591016841F010010160016801F010010C
:1027C0000591016841F0080101600068DFF8B480FC
:1027D00000F008000122059011464046FEF7B4F9CA
:1027E000002206214046FEF7AFF9DFF89C904FF437
:1027F0009056002231464846FEF7A6F9DFF88CA035
:102800004FF48077002239465046FEF79DF90125A6
:102810000320CDE902500095694601954046FEF738
:102820009BF806200090CDE9015469464046039488
:10283000FEF792F8B81C00904FF48810CDE901041F
:1028400069464846FEF788F80096CDE90154694686
:1028500048460394FEF780F88020CDE900046946DD
:1028600040460294FEF778F80097CDE90154694696
:1028700050460394FEF770F806B0BDE8F0870000FC
:1028800030380240000802400004024000000240CC
:102890000D4810B50B4901600C49416000214FF40F
:1028A00080428160C0E9031241618161C1610162BE
:1028B000FEF756F9002803D0BDE81040FDF778BEBA
:1028C00010BD000000540040B0000020A0860100B0
:1028D0000D4810B50B4901600C49416000214FF4CF
:1028E00080428160C0E9031241618161C16101627E
:1028F000FEF736F9002803D0BDE81040FDF758BEBA
:1029000010BD00000058004004010020A086010016
:102910000D4810B50B4901604915416000218160E7
:102920004FF4FA52C160C0E904128161C161012112
:102930000162FEF72BFB002803D0BDE81040FDF735
:1029400037BE10BD003C0040580100200E4810B5B5
:102950000C490160002141608160C16001614161F9
:102960008161FFF72FFA08B1FDF722FE4FF40061F5
:102970000548FFF7CFF8002803D0BDE81040FDF769
:1029800017BE10BD002C0140A00100200F4810B55B
:102990000D4901604FF48271416000218160C16086
:1029A0004FF400720161C0E90512C1610162416228
:1029B00081620A21C162FFF7A9FA002803D0BDE8AD
:1029C0001040FDF7F5BD10BD00300140240200208D
:1029D0000F4810B50D4901604FF48271416000212C
:1029E0008160C1604FF400720161C0E90512C161EC
:1029F0000162416281620A21C162FFF787FA002801
:102A000003D0BDE81040FDF7D3BD10BD0038004035
:102A10007C02002010B592B000240F941C2108A85D
:102A20001094FDF7CAFC20216846FDF7C6FC1F483C
:102A30001D49C0E900144FF6FF71C0E9024104616D
:102A400044618461FFF75EFC08B1FDF7B1FD0F94AE
:102A50000FA916481094FFF77DFB08B1FDF7A8FDFC
:102A60006020CDE908040A940C940D940C2208A966
:102A70000E480E94FFF7E0FB08B1FDF799FD0094B6
:102A80004FF40050CDE90440029401940394694648
:102A900006480794FFF734FB08B1FDF789FD0348AA
:102AA000FFF7A0FB12B010BD00000140D4020020CF
:102AB0000C4810B50A4901604FF4E1314160002132
:102AC00081600C22C160C0E904128161C161FFF71D
:102AD0005BFC002803D0BDE81040FDF769BD10BDC8
:102AE000001001401C0300200C4810B50A49016089
:102AF0004FF4E1314160002181600C22C160C0E9E6
:102B000004128161C161FFF73FFC002803D0BDE8DA
:102B10001040FDF74DBD10BD004400406003002093
:102B20000C4810B50A4901604FF4E13141600021C1
:102B300081600C22C160C0E904128161C161FFF7AC
:102B400023FC002803D0BDE81040FDF731BD10BDC7
:102B500000480040A40300200C4810B54FF0A041ED
:102B600001600421416002220021C0E90321C0E983
:102B7000062101624162C1620163FEF7B3FB0028D6
:102B800003D0BDE81040FDF713BD10BDE8030020E1
:102B9000FEE7FEE770470A6842624A688262D1E94E
:102BA00002231A43D1E904310B43C16A1A4321F0CD
:102BB000F7011143C16200207047006800F0030074
:102BC000704708444069704770B50DF1100C11430F
:102BD0009CE870002343194329434268314347F678
:102BE000FF639A430A434260002070BD03210160E5
:102BF00000207047D0F8800070470A688260D1E9F1
:102C000001231A43D1E903310B43C1681A436FF31F
:102C10000B011143C1600020704710B585B0044618
:102C20003720CDE9001040200290002003904FF49F
:102C30008060049069462046FFF7DFFF41F288324A
:102C40003721204600F004F905B010BD10B5044648
:102C50000A4885B001432920CDE9001040200290A8
:102C6000002003904FF48060049069462046FFF7EF
:102C7000C4FF204600F0A4F905B010BD000010808C
:102C800010B585B004461020CDE900104020029018
:102C9000002003904FF48060049069462046FFF7BF
:102CA000ACFF41F288321021204600F0D1F805B087
:102CB00010BD10B585B004460620CDE900104020B7
:102CC0000290002003904FF48060049069462046F3
:102CD000FFF793FF41F288320621204600F0B8F852
:102CE00005B010BD30B585B00024054600940194B0
:102CF0004FF480600294CDE9034069462846FFF70F
:102D00007CFF0B484FF4FA510068B0FBF1F041F240
:102D100088314843401E03D24FF0004005B030BD1B
:102D2000696B0906F6D5C520A8632046F6E70000C2
:102D30001400002010B585B004464FF4D570009003
:102D40000820019040200290002003904FF4806002
:102D5000049069462046FFF750FF204600F096F9A0
:102D600005B010BD10B585B004460720CDE90020A0
:102D700040200290002003904FF480600490694648
:102D80002046FFF73AFF41F288320721204600F043
:102D90005FF805B010BD10B585B0044600210220D3
:102DA000CDE90010C020CDE902014FF4806004900D
:102DB00069462046FFF721FF204600F0D9F805B00C
:102DC00010BD10B585B004460920CDE90010C02023
:102DD0000290002003904FF48060049069462046E2
:102DE000FFF70BFF204600F0C3F805B010BD10B58B
:102DF00085B0044600213320CDE900104020CDE904
:102E000002010001049069462046FFF7F6FE41F2F8
:102E100088323321204600F01BF805B010BD30B5D4
:102E200085B00C46054600210320CDE90010402066
:102E3000CDE902010001049069462846FFF7DDFE56
:102E400022460321284600F0DDF805B030BD000021
:102E5000454B10B51B684FF4FA54B3FBF4F35343DE
:102E60005B1E02D24FF0004010BD426B12F0450FC6
:102E7000F6D01205F4D4426B520703D504218163C6
:102E8000084610BD426BD20702D00121816305E0E4
:102E9000C52282630269D2B28A4201D0012010BDEC
:102EA0000021FFF78EFE3149084201D1002010BDFC
:102EB000002802DA4FF0007010BD410001D540201B
:102EC00010BD810001D5802010BDC10002D54FF496
:102ED000807010BD010102D54FF4007010BD41019A
:102EE00002D54FF4806010BDC10102D54FF40060DF
:102EF00010BD010202D54FF4805010BD410202D531
:102F00004FF4005010BD810202D54FF4804010BD37
:102F1000C10202D54FF4004010BD410302D54FF469
:102F2000003010BD810302D54FF4802010BDC103D5
:102F300002D54FF4002010BD010402D54FF48010DB
:102F400010BD410402D54FF4001010BD810402D51C
:102F50004FF4800010BD000702D54FF4000010BDF3
:102F60004FF4803010BD00001400002008E0FFFD89
:102F700012494FF4FA520968B1FBF2F141F288327A
:102F80005143491E02D24FF000407047426B12F08D
:102F9000450FF6D01205F4D4416B490703D504213F
:102FA000816308467047416BC90703D001218163E3
:102FB00008467047C5218163002070471400002037
:102FC0000F494FF4FA520968B1FBF2F141F288322D
:102FD0005143491E02D24FF000407047426B12F03D
:102FE000450FF6D01205F4D4416B490703D50421EF
:102FF000816308467047C521816300207047000047
:103000001400002030B5204B4FF4FA541B68B3FB7A
:10301000F4F341F2883463435B1E02D24FF0004068
:1030200030BD446B14F0450FF6D02405F4D4436B47
:103030005B0703D504218163084630BD436BDB0782
:1030400002D00121816303E00369DBB28B4201D02E
:10305000012030BDC52181630021FFF7B2FD10F4CE
:10306000604F04D0410406D54FF4005030BD000C31
:103070001080002030BD000402D54FF4805030BDD8
:103080004FF4803030BD00001400002014494FF48C
:10309000FA520968B1FBF2F141F288325143491EFC
:1030A00002D24FF000407047426B12F0450FF6D04D
:1030B0001205F4D4416B490703D504218163084606
:1030C0007047416BC90703D00121816308467047EF
:1030D000416B490601D54021816300207047000003
:1030E000140000202DE9F04788B00D460446FDF796
:1030F00031FD002682460096019637460821206859
:10310000FFF7BEFD002829D1B4F850000104206863
:10311000FFF783FD002821D1401E4FF00808CDE9BC
:10312000020830204FF00209CDE904090120CDE961
:10313000067002A92068FFF72EFD2068FFF757FEF2
:1031400000280BD16F462068416B11F02A0F08D080
:10315000416B09071AD5C0F83880082008B0BDE8CF
:10316000F087416B890205D5FFF744FD47F826003B
:10317000761C02E0416B8904EAD5FDF7EBFCA0EB7D
:103180000A00401CDFD14FF00040E7E7416B8907A0
:1031900003D5C0F838900220E0E7416B890603D5DB
:1031A000202181630846D9E740F23A5181630198B2
:1031B00000BA2860009800BA68600020CEE710B519
:1031C00090B004460120ADF838002068FFF7F5FC08
:1031D000002854D0606C032842D02068FFF7DBFD44
:1031E00000284AD100212068FFF7EBFC606704212A
:1031F0002068FFF7E6FCA06708212068FFF7E1FCE4
:10320000E0670C212068FFF7DCFCC4F88000606CEC
:10321000032825D00EA92068FFF701FE00282CD135
:10322000606C03281CD0BDF83800206501042068BC
:10323000FFF7C7FD002820D100212068FFF7C1FC5F
:10324000606604212068FFF7BCFCA06608212068A6
:10325000FFF7B7FCE0660C212068FFF7B2FC20679F
:1032600004212068FFF7ADFC000DE06403A92046AF
:10327000FEF7DCFC30B14FF0805010B010BD4FF0C5
:103280008060FAE7B4F85000002302042068FFF7DA
:1032900069FD0028F1D104F1100007C88DE807008E
:1032A00094E80F00FFF790FC0020E6E72DE9F84FC7
:1032B0000026044600963546B0460068FFF712FD2A
:1032C000002827D12068FFF735FD4FF0805B4FF0D5
:1032D00001094FF6FF7748B1A6642068FFF702FDA9
:1032E000002817D1A06C012802D020E0C4F8489033
:1032F00000212068FFF791FC58B918E000212068F0
:10330000FFF78BFC002805D151462068FFF79EFC93
:1033100010B15846BDE8F88F00212068FFF751FC36
:1033200005464FEAD0780098401C009002E0DFF894
:103330002CA00098B84202D2B8F1000FDED000985D
:10334000B84202D34FF08070E4E7680002D5C4F8B9
:10335000449000E066640020DCE70000000010C13B
:103360007047FDF733BF000030B593B03021684699
:10337000FDF723F814210CA8FDF71FF81D480025C0
:10338000016841F080510160006800F080501190A8
:103390001948016841F4804101600068022400F48A
:1033A0008040119001200090000401908001CDE93F
:1033B000064004200890A820CDE9090407200B90BE
:1033C0006846FEF7F1F908B172B6FEE70CA90F20C6
:1033D00081E831004FF4A0500F904FF480501090CE
:1033E00005210CA8FEF7F6F8002801D072B6FEE71A
:1033F00013B030BD40380240007000400248016800
:1034000041F470010160704788ED00E0F0B502689A
:10341000254C264D264E274F274B4FF0804CA0427F
:1034200009D0604507D0A84205D0B04203D0B842C9
:1034300001D0984204D122F0700E4A6842EA0E028E
:10344000A0421BD0604519D0A84217D0B04215D079
:10345000B84213D0984211D0184DA8420ED0184D42
:10346000A8420BD0174DA84208D0174DA84205D04E
:10347000164DA84202D0164DA84203D122F4407541
:10348000CA682A434D6922F080022A4302608A6892
:10349000C2620A688262A04201D0984201D10969E1
:1034A000016301214161F0BD0000014000040040C2
:1034B00000080040000C00400004014000400140B2
:1034C000004401400048014000180040001C00403A
:1034D00000200040F0B5026A22F001020262036A95
:1034E00042688469124E24F073050C682C4323F063
:1034F00002058B682B430D4DA84201D0B04205D187
:1035000023F00807CB683B4323F00403A84201D013
:10351000B04205D14D6922F4407215438A692A43AD
:1035200042608461496841630362F0BD000001406C
:1035300000040140F0B5026A22F010020262026A41
:10354000436884690D6824F4E64444EA05248D68E0
:1035500022F0200242EA05120F4D104EA84201D07F
:10356000B04206D1CF6822F0800242EA071222F070
:103570004002A84201D0B04207D14D6923F4406314
:1035800043EA85038D6943EA8503436084614968A2
:1035900081630262F0BD00000000014000040140B0
:1035A000F0B5026A22F480720262026A4368C4695A
:1035B00022F4007224F073050C68124E2C438D68BF
:1035C00042EA05220E4DA84201D0B04206D1CF6892
:1035D00022F4006242EA072222F48062A84201D06B
:1035E000B04207D14D6923F4405343EA05138D6976
:1035F00043EA05134360C4614968C1630262F0BDD8
:10360000000001400004014030B5026A22F48052FB
:103610000262046A4268C3690D6823F4E64343EA20
:1036200005238D6824F4005444EA0534084DA8426B
:1036300002D0084DA84204D14D6922F4804242EAEA
:1036400085124260C36149680164046230BD0000B4
:10365000000001400004014070B5044600680169A3
:10366000E26821F44051114301612169A068E269D7
:1036700008436169114308432168CA6849F20C6331
:103680009A430243CA6020684169A26921F44071EB
:103690001143416131492068884202D03049884253
:1036A00002D1FEF741F801E0FEF72EF8E2690023AF
:1036B000192164253226B2F5004F626828D0A0FB9C
:1036C0000101930F9200FCF7CFFD0146B0FBF5F02E
:1036D0006FF01802504301EB800006EB0010B0FBC6
:1036E000F5F000F0F002B1FBF5F002EB0012B1FBD7
:1036F000F5F06FF01803584301EB800006EB001063
:10370000B0FBF5F000F00F0021681044886070BD38
:10371000A0FB010192185B41FCF7A6FD0146B0FB3E
:10372000F5F00201B1FBF5F06FF01803584301EB1F
:10373000800006EBC000B0FBF5F000F0F80002EBF3
:103740004002B1FBF5F0584301EB800006EBC000EE
:10375000B0FBF5F000F00700D6E7000000100140D4
:103760000014014070B5044606990A9E049D0D9808
:10377000012916D0E06840F04000E060204600F0EB
:103780002BF8A16B1EB321F48031A163012D07D169
:10379000A16841F00601A160A16841F02001A1608B
:1037A00070BDA16B21F48031A163E168094A114029
:1037B000E160E16821F44011E160012803D1E06893
:1037C00040F48010E060204600F006F8DEE741F4A7
:1037D0008031DAE7BFFFBDFF08B500220D49009236
:1037E000009B5B1C00938B420CD80369002BF7DA1B
:1037F0000092026942F001020261009A521C00929A
:103800008A4201D9032008BD0269D207F5D1002000
:1038100008BD0000400D0300D0F8001E21F0030198
:10382000C0F8001ED0F8041841F00201C0F80418D6
:10383000002070472DE9F04F00250E460446DDF8C4
:103840002CC0DDF824B0109F2846294604EB8002E6
:10385000C2F80411401C0F28F8D32046C7B1806B72
:1038600020F40012A263A06B40F40022A263084679
:103870008846C4F8000ED4F800182046C4F8001892
:10388000BCF1010F16D0D0F8001841F0030116E08A
:10389000D0F8040840F00202C4F80428A06B40F4F9
:1038A0000012A263A06B20F40022A263A06B20F49C
:1038B0008022DBE7D0F800180BB141F00101C0F81D
:1038C0000018102100F094F800B10125204600F006
:1038D00071F800B101254046C4F81088C4F8148876
:1038E000C4F81C8800214FF000694FF0904A4FF651
:1038F0007F3314E004EB4112D2F800C9BCF1000F91
:1039000006DA11B1C2F800A904E0C4F8009901E098
:10391000C2F80009C2F81009C2F80839491C8E42E1
:10392000E8D8002115E000BF04EB4112D2F800CB2B
:10393000BCF1000F06DA11B1C2F800AB04E0C4F824
:10394000009B01E0C2F8000BC2F8100BC2F8083B64
:10395000491C8E42E8D8D4F8101821F48072C4F8BB
:103960001028A0616FF080406061BBF1000F03D1AF
:10397000A06940F01000A061A06909490843A06156
:103980000C9818B1A06940F00800A061012F03D184
:10399000A06904490843A0612846BDE8F08F0000F3
:1039A00000383C8004000040816821F00101816002
:1039B0000020704708B500220C490092009B5B1C58
:1039C00000938B420AD80369002BF7DA0092102289
:1039D0000261009A521C00928A4201D9032008BD5C
:1039E0000269D206F5D4002008BD0000400D030096
:1039F00018B500230D4A0093009C641C0094944267
:103A00000CD80469002CF7DA0093202343EA8111D3
:103A100001610099491C0091914201D9032018BD10
:103A200001698906F5D4002018BD0000400D03008F
:103A300070B50446C068002520F0C040E060012950
:103A400001D079B120E0E06840F00050E060012052
:103A5000FCF736FF60696D1C10F0010F10D1322D9C
:103A6000F5D30DE0E06840F08040E0600120FCF715
:103A700027FF60696D1C10F0010F01D0322DF5D3C6
:103A8000322D01D0002070BD012070BDFEE7090776
:103A9000090E002804DB00F1E02080F800147047D4
:103AA00000F00F0000F1E02080F8141D70470000C6
:103AB000FDF794FBFFF758FCFEF752FEFEF718FEE9
:103AC000FEF7E6FEFEF704FFFEF722FFFEF73EFFDD
:103AD000FEF75CFFFEF77CFFFEF7EAFFFFF704F856
:103AE000FFF71EF8FEF7D2FDFFF736F8FEF792FF5C
:103AF000094D4FF4FA74002201212846FDF724F8FD
:103B00002046FCF7DDFE012211462846FDF71CF891
:103B10002046FCF7D5FEEEE7000802404FF040706B
:103B2000E1EE100A704700000000000000000102F2
:103B30000304060708090000000001020304000056
:103B4000603B00080000002018000000C4010008CD
:103B5000783B000818000020400F0000E00100083A
:103B60000000000000000000010000001000000044
:083B7000000000000024F40035
:040000050800018965
:00000001FF
