:020000040800F2
:10000000E007002031020008E32100080B1C000873
:10001000E121000881060008892600080000000090
:10002000000000000000000000000000192300088C
:10003000E508000800000000E52100081B23000877
:100040004B0200084B0200084B0200084B0200085C
:100050004B0200084B0200084B020008E7080008AA
:100060004B0200084B0200084B0200084B0200083C
:100070004B0200084B0200084B0200084B0200082C
:100080004B0200084B0200084B0200084B0200081C
:100090004B0200084B0200084B0200084B0200080C
:1000A0004B0200084B0200084B0200084B020008FC
:1000B000C52300084B0200084B0200084B02000851
:1000C0004B0200084B0200084B0200084B020008DC
:1000D0004B0200084B0200084B0200084B020008CC
:1000E0004B0200084B0200084B0200084B020008BC
:1000F0004B0200084B0200084B0200084B020008AC
:100100004B0200084B0200084B0200084B0200089B
:100110004B0200084B0200084B0200084B0200088B
:100120004B0200084B0200084B0200084B0200087B
:100130004B0200084B0200084B0200084B0200086B
:100140004B0200084B0200084B0200084B0200085B
:100150004B0200084B0200084B0200084B0200084B
:100160004B0200084B0200084B0200084B0200083B
:100170004B0200084B0200084B0200080000000080
:100180004B0200084B02000800F002F800F041F8B2
:100190000AA090E8000C82448344AAF10107DA45E2
:1001A00001D100F036F8AFF2090EBAE80F0013F0F3
:1001B000010F18BFFB1A43F0010318477027000016
:1001C00090270000103A24BF78C878C1FAD85207A7
:1001D00024BF30C830C144BF04680C6070470000C1
:1001E0000023002400250026103A28BF78C1FBD840
:1001F000520728BF30C148BF0B607047642900F028
:10020000F780002070471FB502F066FB1FBD10B5D8
:1002100010BD00F003FA1146FFF7F5FF02F03EFBB8
:1002200000F021FA03B4FFF7F2FF03BC00F078F905
:100230000948804709480047FEE7FEE7FEE7FEE77A
:10024000FEE7FEE7FEE7FEE7FEE7FEE704480549B6
:10025000054A064B70470000B523000889010008D5
:10026000E0010020E0070020E0030020E003002080
:1002700053EA020C00F069802DE9F04B4FF00006C4
:10028000002B1FBFB3FA83F503FA05F424FA05F631
:100290005E4012BF1643B2FA82F502FA05F4C5F1C8
:1002A00020051EBF22FA05FC44EA0C04203556EA5C
:1002B000044C4FEA144418BF641C4FF000084FF080
:1002C0000009904271EB030C39D3002919BFB1FA30
:1002D00081F701FA07F6B0FA80F700FA07F6C7F1DE
:1002E00020071EBF20FA07FC46EA0C062037B6FBA3
:1002F000F4FCA7EB0507103F07F01F0BCBF120061E
:100300000CFA0BFB2CFA06F644BFB3460026202F4E
:10031000A4BF5E464FF0000B5BEA060C08BF4FF02F
:10032000010B19EB0B09ABFB027C48EB0608C01B69
:1003300006FB02CC0BFB03CC71EB0C01C1E70B46B7
:10034000024641464846BDE8F08B13B54FF0000029
:100350004FF00001AFF30080BDE81C407047000083
:100360000FB41CB5074B06AA7B446946009005985C
:1003700000F03BF90020694600F04AF91CBC5DF82A
:1003800014FB0000A50200002DE9F0410E460446D2
:10039000002020622046E168884730B3252805D038
:1003A000D4E901219047206A401CF2E7E168204629
:1003B00000278847050018D0A5F14100192802D868
:1003C00020354FF400673246294620462760FFF764
:1003D00015FF40B1012804D0F61D26F007060836A7
:1003E000D8E7361DD6E72846DAE7206ABDE8F0816F
:1003F0002DE9F0410646002410687529314616A5FE
:1004000010D0AFF30080002802DA404213A507E0C5
:1004100031688A0701D512A502E0490704D511A564
:10042000012401E0AFF3008000210A2206F1240735
:1004300009E0B0FBF2FCB0FBF2F302FB1C00303031
:1004400078541846491C0028F3D123462A463046E2
:10045000BDE8F04100F06AB8000000002D00000087
:100460002B0000002000000010B5203AC0F00B80E7
:10047000B1E81850203AA0E81850B1E81850A0E8A8
:100480001850BFF4F5AF5FEA027C24BFB1E8185002
:10049000A0E8185044BF18C918C0BDE810405FEA72
:1004A000827C24BF51F8043B40F8043B08BF7047EE
:1004B000D20728BF31F8023B48BF11F8012B28BFF3
:1004C00020F8023B48BF00F8012B70474FF00002B4
:1004D00000B5134694469646203922BFA0E80C503A
:1004E000A0E80C50B1F12001BFF4F7AF090728BF15
:1004F000A0E80C5048BF0CC05DF804EB890028BF91
:1005000040F8042B08BF704748BF20F8022B11F0B9
:10051000804F18BF00F8012B704770477047704735
:1005200001491820ABBEFEE7260002002DE9F04786
:100530000D4699469246044600F124080168880653
:1005400004D5E06921F01001216000E00120A842FB
:1005500001DD471B00E00027A1697A1902EB0900C1
:10056000081AA0612078C00602D42046AFF30080AC
:10057000002608E0D4E901211AF806009047206A15
:10058000401C761C20624E45F4DB2078C0060AD55C
:100590002046AFF3008006E0D4E9012130209047E7
:1005A000206A401C2062381EA7F10107F4DC07E036
:1005B000D4E9012118F805009047206A401C206208
:1005C000281EA5F10105F3DC2046AFF3008020785A
:1005D000000602D50220BDE8F0870120FBE70000FD
:1005E00001694A1C02610878704700B58FB0CDE9F7
:1005F00001310021059105497944CDE903101146E7
:100600006846FFF7C1FE0FB000BD0000E5FFFFFF29
:100610000A6802F8010B0A6070477047754600F0DF
:100620002BF8AE4605006946534620F00700854684
:1006300018B020B5FFF70AFEBDE820404FF00006D5
:100640004FF000074FF000084FF0000B21F00701BA
:10065000AC46ACE8C009ACE8C009ACE8C009ACE8FD
:10066000C0098D46704710B50446AFF300802046A0
:10067000BDE81040FFF7D6BD00487047800100205C
:10068000FEE72DE9F04115460E46044600F0D0F88D
:10069000702000F0ADF800F0FDF8E0B200F0A8F82E
:1006A00000F0F8F800F0C4F8712000F0A1F800F0B4
:1006B000F1F800246F1E09E0BC4201D0012000E0E7
:1006C000002000F06BF83055641CE4B2AC42F3D368
:1006D000BDE8F04100F0C6B82DE9F04116460F46DE
:1006E0000446002500F0A4F8702000F081F800F026
:1006F000D1F8E0B200F07CF800F0CCF8002408E07B
:10070000385D00F075F800F0C5F8050003D1641CF1
:10071000E4B2B442F4D300F0A5F82846BDE8F08175
:1007200070B50C4C0025C4F89C52022004F52674C8
:1007300002F088F801262660022002F083F8256086
:10074000022002F07FF86660BDE87040022002F0EF
:1007500079B800000080404203480121C0F89C1293
:10076000C0F89812704700000080404270B50A4CF3
:100770000125C4F89C52022004F5267402F062F8A8
:100780002560022002F05EF800202060BDE8704085
:10079000022002F057B80000008040422DE9F047E7
:1007A0000024124E814625460127A0466006040E0D
:1007B000C6F89872022002F045F8D6F81C0208B17B
:1007C000641CE4B2C6F89882022002F03BF86D1C6B
:1007D000EDB2082DEAD3B9F1000F04D0FFF7A0FF66
:1007E0002046BDE8F087FFF7C1FFF9E700804042EF
:1007F0002DE9F04100240D4D0646A0460127F009E1
:10080000C5F89C02022002F01DF8C5F8987202207B
:1008100002F018F8C5F898827006641C060EE4B25F
:10082000082CECD3C5F89C72BDE8F08100804042F2
:1008300070B50B4C0120C4F89C02C4F89802022049
:1008400004F5267401F0FEFF00256560022001F02A
:10085000F9FF2560BDE87040022001F0F3BF000001
:100860000080404270B50A4C0020C4F89C0202206F
:1008700004F5267401F0E6FF01252560022001F051
:10088000E1FF6560BDE87040022001F0DBBF0000C1
:10089000008040422DE9F0410025114C01272E46F1
:1008A000C4F89C72022001F0CDFFC4F8987207E0F2
:1008B0006D1CEDB2FA2D03D9FFF7D4FF012606E037
:1008C000022001F0BFFFD4F81C020028F0D1002064
:1008D000C4F89802022001F0B5FF3046BDE8F0816F
:1008E000008040427047022000F0F0B872B6FEE788
:1008F00030B5B3F5804F05D06FF0704140F822104D
:10090000002030BD8C690B688D6823434C68898951
:10091000240144EA0524234343EA014150F82230EC
:10092000014C23401943E9E70000F0CF10B50A68F5
:1009300050F8223023F0010340F822308C68082C54
:1009400023D000234A682243CC681C430B6922430E
:100950001A434B690E4C1A43CB691A430B6A1A436C
:100960004B6A1A438B6A1A43CB6A1A430B6B1A43BE
:100970008B691343CA6B09681A4350F82130A343AB
:10098000134340F82130002010BD4023DAE7000077
:100990007FFF0F0030B5D1E9003443EA04138C68BF
:1009A0008D89240244EA054423430C8A094D00EB57
:1009B000820005EB045423430C7D6D0105EB0464B8
:1009C000896923430B43416801F040410B43436075
:1009D000002030BD0000F0FF70B5044600F080F943
:1009E0000546601C02D004480078044400F078F901
:1009F000401BA042FAD370BD10000020F0B587B0B4
:100A000014216846FFF762FD15480168002924D1CA
:100A10000121016013480024016841F001010160D7
:100A20000068022500F0010005904FF4F060CDE968
:100A3000000502AA03260C2782E8D00069460A486E
:100A400000F050F84CF6B300CDE9000502AA694663
:100A500082E8D000054800F045F807B0F0BD00007E
:100A6000080000203838024000100240000C02400C
:100A700010B5022817D101F0FFFE0B4C207840F092
:100A800040002070002001F045FEA388628807A185
:100A9000A01DFFF765FC0A231E22A11DBDE8104022
:100AA000094801F059B810BD28000020746F756323
:100AB000685F783A20256420746F7563685F7920D9
:100AC0003A202564200D0A003C010020044910B59D
:100AD0000A68024202D00860FFF7CAFF10BD00009A
:100AE000143C01402DE9F84FDFF8BCA1002201259C
:100AF00003264FF00F090AF1040BAAF1040E00BF00
:100B00000B6805FA02F42340A34270D10F7907F075
:100B10000307012F01D0022F16D187684FEA420840
:100B200006FA08FC27EA0C07D1F80CC00CFA08FCFE
:100B30004CEA070CC0F808C04768A7430C79C4F317
:100B4000001494403C4344600C79E443A4070AD069
:100B5000C4684FEA420C06FA0CF7BC438F6807FAE8
:100B60000CF72743C7600C7904F00304022C12D160
:100B7000D40800EB840CDCF820405707FF0E09FA7C
:100B800007F824EA0804D1F8108008FA07F848EAC0
:100B90000408CCF8208004684FEA420C06FA0CF7EF
:100BA000BC430F7907F0030707FA0CF727430760E8
:100BB0004C6814F4403F70D03C4C276847F48047A1
:100BC0002760246822F0030704F480440094384C22
:100BD00007EB040CDCF8084897074FEA177809FA86
:100BE00008F7BC43334FB84202D1002724E054E059
:100BF000314FB84201D101271EE0304FB84201D138
:100C0000022719E02E4FB84201D1032714E02D4FDF
:100C1000B84201D104270FE02B4FB84201D105277C
:100C20000AE02A4FB84201D1062705E0284FB84212
:100C300001D1072700E0082707FA08F72743CCF877
:100C40000878DAF800405746D1F804C09C435FEAC0
:100C5000CC2C00D51C433C60DBF800405F46D1F84B
:100C600004C09C435FEA8C2C00D51C433C60DEF83A
:100C700000407746D1F804C09C435FEA8C3C00D525
:100C80001C433C60084F083F3C68D1F804C09C43BB
:100C90005FEACC3C00D51C433C60521C102AFFF498
:100CA0002FAFBDE8F88F0000083C014044380240F7
:100CB00000300140000002400004024000080240F1
:100CC000000C0240001002400014024000180240D4
:100CD000001C02400AB1816170470904FBE7000073
:100CE00001488068704700001000002002488168B9
:100CF0000278114481607047100000200B4810B545
:100D0000016841F400710160016841F48061016093
:100D1000016841F480710160032000F06FF80F203A
:100D200000F006F800F024F8002010BD003C02405E
:100D300070B50D4D04464FF47A712878B1FBF0F090
:100D40000A490968B1FBF0F000F0C9FC48B9102C61
:100D500007D200222146501E00F030F800206C60BF
:100D600070BD012070BD0000100000201C0000209C
:100D70000A4808B5016841F480410160006800F448
:100D8000804000900548001F016841F080510160DB
:100D9000006800F08050009008BD00004438024018
:100DA000002809DB00F01F0201219140400980006A
:100DB00000F1E020C0F8001170470000F0B40E4BC5
:100DC0001B680C46C3F30223C3F10705042D00D9A9
:100DD0000425191D072901D2002300E0DB1E01268E
:100DE00006FA05F1491E214099409E40761E1640A4
:100DF0003143F0BC01F049BC0CED00E0064900F0C5
:100E0000070208684FF6FF03184040EA0220034A31
:100E100010430860704700000CED00E00000FA0588
:100E20002DE9F0470E46050065D0DFF81481D8F8AB
:100E30000000F7B200F00700B04207D288F8007057
:100E4000D8F8000000F00700B04254D128683D4CAB
:100E5000810712D5400703D5206840F4E050206098
:100E60002878000703D5206840F46040206020689F
:100E7000A96820F0F000084320602878C0072DD032
:100E8000304968680839012812D0022813D0032895
:100E900011D00968890700292DDA216821F00301A2
:100EA00001432160FFF71CFF814641F2883A0EE0C2
:100EB00009688903EFE709688901ECE7FFF710FF8C
:100EC000A0EB0901514502D90320BDE8F087206855
:100ED000696800F00C00B0EB810FEFD1D8F800107A
:100EE000404601F00701B14207D90770006800F0E1
:100EF0000700B04201D00120E7E72878400705D578
:100F00002068E96820F4E050084320602878000752
:100F100006D52068296920F4604040EAC1002060BD
:100F200000F038F82168084AC1F30311515CC84049
:100F30000649086006480068FFF7FAFE0020C4E78B
:100F4000003C024008380240122900081C00002022
:100F5000140000200448054900680968044AC1F3E8
:100F60008221515CC84070471C00002008380240B4
:100F7000222900080448054900680968044AC1F3A9
:100F80004231515CC84070471C00002008380240C4
:100F900022290008154810B5006810F00C0214480A
:100FA00013D04110042A0FD0082A0ED10F4C241F51
:100FB0002268236802F03F025B0207D52068C0F375
:100FC0008810A0FB010106E0084610BD2168C1F3AE
:100FD0008811A1FB00010023FFF74AF92168C1F342
:100FE0000141491C4900B0FBF1F010BD0838024036
:100FF0000024F4002DE9F84F04006ED02078DFF8CB
:101000004C93C007A9F104054AD009F10400016816
:10101000C1F38101012908D00068C0F381000228D2
:101020000AD1D9F80000400206D52868800337D5D8
:1010300060680028E1D033E06068B0F5803F10D0F0
:10104000B0F5A02F286810D020F4803028602868E0
:1010500020F4802028606068A8B1FFF741FE0646B2
:101060000DE0286840F48030F4E740F480202860E8
:10107000F7E700BFFFF734FE801B642873D82868A9
:101080008003F7D50CE0FFF72BFE064605E000BF16
:10109000FFF726FE801B6428F0D828688003F7D469
:1010A0002078DFF8AC8280074FF0000A3ED5A748D1
:1010B000001D016811F00C0F08D00068C0F381001A
:1010C00002280BD1D9F80000400207D42868800715
:1010D00016D5E068012800D112E033E1E068B8B12C
:1010E0000120C8F80000FFF7FBFD064605E000BF41
:1010F000FFF7F6FD801B0228C0D828688007F7D5C7
:101100002868216920F0F80040EAC10028600DE05D
:10111000C8F800A0FFF7E4FD064604E0FFF7E0FD95
:10112000801B02281FD828688007F7D42078000782
:1011300022D5864F87486169703771B101210160FE
:10114000FFF7CEFD064604E0FFF7CAFD801B02282C
:1011500009D838688007F7D50EE0C0F800A0FFF77F
:10116000BFFD064605E082E0FFF7BAFD801B0228BE
:101170007DD838688007F7D42078400768D5DFF835
:10118000CCB100270BF13C0BDBF80000C0000BD406
:10119000DBF8001041F08051CBF80010DBF80000C4
:1011A000012700F0805000906B4E3068C00510D4CD
:1011B000306840F480703060FFF792FD009005E0E9
:1011C000FFF78EFD0099401A022850D83068C005FC
:1011D000F6D55E4EA0686C3601280FD00528306821
:1011E00010D020F001003060306820F00400306042
:1011F000A068B8B1FFF774FD00900FE0306840F0D0
:101200000100F4E740F004003060F7E7FFF768FD05
:101210000099411A41F28830814266D830688007CF
:10122000F4D50EE0FFF75CFD009007E0FFF758FDF6
:101230000099411A41F28830814256D830688007BF
:10124000F4D42FB1DBF8001021F08051CBF800105E
:10125000A069C8B33D49091D0968C1F3810102298C
:101260004AD00228504607D0C8F8600000E03CE0B1
:10127000FFF736FD04463BE04746C8F86000FFF73D
:101280002FFD064605E000BFFFF72AFD801B022860
:101290002BD828688001F7D4D4E907010843A16A54
:1012A0002E4A490802EB0141626A41EA8211084371
:1012B00094F82C1040EA0161C9F80010012038664A
:1012C000FFF70EFD044606E03EE000BFFFF708FD15
:1012D000001B022809D828688001F7D534E000BF38
:1012E000FFF7FEFC001B022802D90320BDE8F88F9F
:1012F00028688001F4D427E00128F7D0D9F800004D
:10130000E26900F4800191421CD1226A00F03F01A1
:10131000914217D147F6C071626A0140B1EB821F5A
:1013200010D1A26A4FF0FF3300F4403103EB5202B8
:10133000B1EB024F06D194F82C1000F07060B0EBC6
:10134000016F01D00120D1E70020CFE7043802402F
:1013500000004742800E4742007000400000FFFF3F
:1013600070B5040009D0606A002540B1256165614F
:10137000A56294F8510040B10CE0012070BD606896
:10138000B0F5827FF4D0E561F2E784F85050204652
:1013900000F044F8022084F851002068016821F030
:1013A00040010160A088218900F4827001F40441A9
:1013B0000843A18901F400610843217C01F0020186
:1013C0000843217D01F001010843218B01F40071E4
:1013D0000843217F01F03801084394F8201001F000
:1013E00080010843218D01F4005108432168086001
:1013F000A069042101EA104094F8241001F01001C2
:101400000843216848602068C16921F40061C16116
:101410006565012084F85100002070BD10B586B0CC
:10142000044614216846FFF751F8134920688842A2
:1014300020D112480021026842F480520260006804
:1014400000F4805005900D481438026842F0010203
:101450000260006800F001000590E020009002208A
:10146000CDE901010320039005200490694604485A
:10147000FFF738FB06B010BD003001404438024091
:10148000000002402DE9F84F044690F85000002774
:101490000A9E1D4692468B464FF0010901280ED048
:1014A000012084F85000FFF71BFC804694F851009F
:1014B000616801280CD0B1F5827F07D102E00220DB
:1014C000BDE8F88FA16809B9042801D00227C2E05D
:1014D000BBF1000F27D0BAF1000F24D01DB394F850
:1014E0005100042802D0052084F8510000206065D6
:1014F000C4F838A0E587A587C4F830B0E586A5868E
:101500002064606420680168490603D4016841F0E2
:1015100040010160E068B0F5006F606805D0E8B395
:10152000012D46D07FE0012795E008B1012D39D18A
:10153000206B21680088C860206B801C2063E08ECF
:10154000401EE0862EE02068816889070FD5E18E75
:1015500069B1B9F1010F0AD1216B0988C160206B13
:10156000801C2063E08E401EE0864FF0000920685A
:101570008168C9070CD0E18F51B1C068A16B0880A8
:10158000A06B801CA063E08F401EE0874FF0010934
:10159000FFF7A6FBA0EB0800B04200E009E001D392
:1015A000701C50D1E08E0028CDD1E08F0028CAD128
:1015B0003FE0206B216800780873206B401C20639B
:1015C000E08E401EE0862EE02068816889070FD5F6
:1015D000E18E69B1B9F1010F0AD1216B097801736C
:1015E000206B401C2063E08E401EE0864FF0000917
:1015F00020688168C9070CD0E18F51B1C068A16B28
:101600000870A06B401CA063E08F401EE0874FF085
:101610000109FFF765FBA0EB0800B04202D3701C84
:1016200001D010E07EB1E08E0028CDD1E08F0028FF
:10163000CAD142463146204600F0E6FD28B10127D6
:101640002020606507E0032705E0A06818B920683E
:10165000C16880680090012084F85100002084F85F
:10166000500038462CE770B515460E46040003D0EE
:1016700094F8490010B107E0012070BD002084F803
:101680004800204600F01DF804F108012068FFF72B
:101690004DF93146A2682068FFF77CF9D4E90102D0
:1016A0002946236BFFF724F92168A06851F8202010
:1016B00042F0010241F82020012084F84900002076
:1016C00070BDFFF79BB94FF0E0210428086903D0F3
:1016D00020F004000861704740F00400FAE710B5FC
:1016E000401EB0F1807F01D3012010BD4FF0E024F7
:1016F00060610F21601700F0C8FF0020A061072083
:101700002061002010BD70477047000070B590F850
:101710003C20012A32D0012480F83C40022280F88B
:101720003D2003685A689D6822F070060A683243BB
:101730005A60134B02689A4214D0B2F1804F11D014
:10174000104B9A420ED0104B9A420BD00F4B9A423C
:1017500008D00F4B9A4205D00E4B9A4202D00E4B46
:101760009A4204D1496825F080031943916080F8BA
:101770003D40002180F83C10084670BD022070BD3D
:10178000000001400004004000080040000C004040
:1017900000040140004001400018004010B5040062
:1017A00003D094F83D0010B107E0012010BD0020E7
:1017B00084F83C00204600F01FF8022084F83D0029
:1017C000211D206800F004FE012084F8460084F802
:1017D0003E0084F83F0084F8400084F8410084F81B
:1017E000420084F8430084F8440084F8450084F8FB
:1017F0003D00002010BD000008B50068B0F1804F2A
:1018000012D10A48016841F001010160006800221C
:1018100000F00100009002211C20FFF7CFFABDE884
:1018200008401C20FFF7BCBA08BD00004038024049
:1018300070B5044690F83C000025012817D0012619
:1018400084F83C60022084F83D002068826822F021
:10185000770222F47F4282600868502838D00DDC7D
:1018600020284FD005DC90B3102811D14AE0022087
:1018700070BD302846D040280AD13BE060282FD0E8
:1018800070280DD0B0F5805F03D0B0F5005F12D0A6
:10189000012584F83D60002084F83C00284670BD96
:1018A000CB68D1E90121206800F0F6FD206881684D
:1018B00041F0770109E0CB68D1E90121206800F00F
:1018C000EBFD2068816841F480418160E1E719E027
:1018D000CA684968206800F0F1FD5021206806E0E0
:1018E000CA684968206800F0FAFD6021206800F0AD
:1018F000DDFDCEE7CA684968206800F0DFFD4021C1
:101900002068F4E7226801461046F0E7704770B59A
:101910000446006801694FF00005C943890715D4E2
:10192000C168C943890711D4E91E016101202077EC
:10193000206880698007204602D0FFF7E7FF04E0B7
:1019400000F098F8204600F096F8257720680169A5
:10195000C943490717D4C168C943490713D46FF075
:1019600004010161022020772068806910F4407F23
:10197000204602D0FFF7CAFF04E000F07BF82046C3
:1019800000F079F8257720680169C943090716D462
:10199000C168C943090712D46FF00801016104202E
:1019A00020772068C0698007204602D0FFF7AEFF8D
:1019B00004E000F05FF8204600F05DF8257720682D
:1019C0000169C943C90617D4C168C943C90613D4FC
:1019D0006FF010010161082020772068C06910F4C1
:1019E000407F204602D0FFF791FF04E000F042F86C
:1019F000204600F040F8257720680169C943C907EF
:101A000008D1C168C943C90704D1891E01612046B4
:101A100000F032F820680169C943090609D4C16899
:101A2000C943090605D46FF0800101612046FFF724
:101A30006AFE20680169C943490609D4C168C943DF
:101A4000490605D46FF040010161204600F01CF802
:101A500020680169C94389060BD4C168C943890656
:101A600007D46FF0200101612046BDE87040FFF708
:101A70004BBE70BD704770470068B0F1804F02D117
:101A8000012000F001BF7047704770B5040004D01A
:101A900094F83D00002510B106E0012070BD84F8E7
:101AA0003C50204600F022F8242084F83D002068B5
:101AB000C16821F40051C160204600F023FD206878
:101AC000016921F4904101612068416921F02A01F6
:101AD00041612068C16841F40051C1602564202043
:101AE00084F83D0084F83E00002070BD10B586B03B
:101AF000044614216846FEF7E9FC14492068884230
:101B000021D113480021026842F0100202600068EF
:101B100000F0100005900E481438026842F00102EF
:101B20000260006800F0010005904FF4C060009072
:101B30000220CDE9010103200390072004906946AB
:101B40000448FEF7CFFF06B010BD000000100140B2
:101B500044380240000002402DE9F843044690F862
:101B60003D001F4616460D4620284CD1C5B1BEB1DA
:101B700094F83C00012846D0012084F83C004FF046
:101B80000008C4F84080212084F83D00FFF7A8F841
:101B9000A6848146E684A068B0F5805F03D004E0A7
:101BA0000120BDE8F883206928B12E465FF00005CA
:101BB00084F83C800EE00026FAE78021204600F001
:101BC00027FDA0B9AEB116F8010B21684860E08C82
:101BD000401EE084E08C4B464FF000020097002846
:101BE000EBD14FF04001204600F012FD30B1032050
:101BF000D7E735F8020BC0F30800E6E7202084F8A9
:101C00003D000020CDE70220CBE7FEE770B5064699
:101C10001C460D462A2000F03DF9300A00F02EF94E
:101C2000F0B200F02BF9100A00F028F9D0B200F061
:101C300025F92B2000F02EF9280A00F01FF9E8B250
:101C400000F01CF9200A00F019F9E0B200F016F9D2
:101C5000BDE870402C2000F01DB9000010B5012235
:101C600091030448FFF736F8BDE81040642000F007
:101C7000DBBD0000001002402DE9F04780461F4602
:101C8000581E83B21646501E82B20C464046DDF8FE
:101C90002090FFF7BBFF0AE0454604E0484600F00D
:101CA00005F96D1CADB2B542F8D3641CA4B2BC42B8
:101CB000F2D3BDE8F08708B500F0CAF8642000F060
:101CC000B3FD112000F0E6F8782000F0ADFD3620DD
:101CD00000F0E0F8702000F0D1F83A2000F0DAF8D7
:101CE000052000F0CBF8B22000F0D4F80C2000F072
:101CF000C5F80C2000F0C2F8002000F0BFF8332037
:101D000000F0BCF8332000F0B9F8B72000F0C2F8BA
:101D1000352000F0B3F8BB2000F0BCF8192000F02B
:101D2000ADF8C02000F0B6F82C2000F0A7F8C220D3
:101D300000F0B0F8012000F0A1F8C32000F0AAF8EC
:101D4000122000F09BF8C42000F0A4F8202000F03E
:101D500095F8C62000F09EF80F2000F08FF8D020F4
:101D600000F098F8A42000F089F8A12000F086F88F
:101D7000E02000F08FF8D02000F080F8042000F080
:101D80007DF80D2000F07AF8112000F077F813208C
:101D900000F074F82B2000F071F83F2000F06EF88E
:101DA000542000F06BF84C2000F068F8182000F088
:101DB00065F80D2000F062F80B2000F05FF81F209E
:101DC00000F05CF8232000F059F8E12000F062F800
:101DD000D02000F053F8042000F050F80C2000F060
:101DE0004DF8112000F04AF8132000F047F82C209D
:101DF00000F044F83F2000F041F8442000F03EF8A5
:101E0000512000F03BF82F2000F038F81F2000F0A0
:101E100035F81F2000F032F8202000F02FF82320A2
:101E200000F02CF8212000F035F8292000F032F8DD
:101E30000020F0234FF4A07201460090FFF71CFF32
:101E4000142000F0F1FCBDE80840FFF707BF0000D8
:101E500010B5094C002202212046FEF73BFF64200A
:101E600000F0E2FC012202212046FEF733FFBDE82C
:101E70001040642000F0D8BC0008024001B5BDF855
:101E80000000ADF80000BDF800000149087008BD71
:101E90000000016001B5BDF80000ADF80000BDF81C
:101EA00000000149087008BDFFFF006070B5044DD7
:101EB0000446000A2870012000F0C4FC2C7070BD9C
:101EC0000000016010B58EB01C216846FEF7FEFAD6
:101ED0001C2107A8FEF7FAFA1B484FF020414FF4E7
:101EE000805201601949416000218160C160016137
:101EF00041618161C1610162C0E909129200C0E9DA
:101F00000B1241638163416401200F2205238DE898
:101F10000D000DF10C0C1023112406918CE8190012
:101F2000CDE9070202220B93CDE90920CDE90C414E
:101F300007AA69460448FFF796FB002801D0FEF780
:101F4000D5FC0EB010BD00004C000020040100A024
:101F50002DE9F04F87B014216846FEF7B7FA5E48C6
:101F60000026016841F010010160016801F01001D4
:101F70000591016841F004010160016801F004016C
:101F80000591016841F080010160016801F0800164
:101F90000591016841F001010160016801F0010152
:101FA0000591016841F002010160016801F0020140
:101FB0000591016841F0080101600068012200F00C
:101FC0000800059028214548FEF784FEDFF810A19F
:101FD000012207215046FEF77DFE4FF48048002283
:101FE00041463E48FEF776FE002240215046FEF76D
:101FF00071FEDFF8F0B04FF480790122494658466F
:10200000FEF768FE0122C0213748FEF763FE012477
:102010002820CDE90004032569463048CDE9024572
:10202000FEF760FD0720CDE9000469465046CDE982
:102030000245FEF757FD3820CDE9000669460294B7
:102040005046FEF74FFDCDE90046694658460294DA
:10205000FEF748FD02274FF404100097CDE9010474
:1020600069462148FEF73EFDCDF800800395CDE995
:10207000014769461948FEF735FD4FF04008CDF895
:1020800000800395CDE9014769465046FEF72AFDD9
:10209000CDE9009469465846CDE90245FEF722FD98
:1020A00001AA1120CDF8008082E8310069460E486F
:1020B000FEF718FD8020CDE9000469460A48CDE905
:1020C0000245FEF70FFD8DE8E00069460348FEF784
:1020D00009FD07B0BDE8F08F303802400010024023
:1020E00000080240000002400004024010B5134CFA
:1020F00011484FF4007120604FF48270606000203E
:10210000A060E0602061C4E90501E06120626062D6
:10211000A0620A20E0622046FFF722F908B1FEF72C
:10212000E5FB2068016841F040010160BDE8104016
:10213000FF2000F059B80000003001409C00002052
:1021400010B586B0002417480094019402940394BB
:1021500004944FF080410594016042F2CF01C0E940
:1021600001140921C0E9031480218161FFF716FBE6
:1021700008B1FEF7BBFB4FF4805000906946094858
:10218000FFF756FB08B1FEF7B1FB049404A905481C
:102190000594FFF7BBFA002801D0FEF7A7FB06B0B5
:1021A00010BD0000F40000200C4810B50A49016081
:1021B0004FF4E1314160002181600C22C160C0E92F
:1021C00004128161C161FFF760FC002803D0BDE803
:1021D0001040FEF78BBB10BD001001403C010020F9
:1021E000FEE7FEE77047000001B582B04FF47A7059
:1021F0000090012301AA02A90248FFF743F99DF8C4
:1022000004000EBD9C00002038B504461248134B54
:102210000068B0FBF3F04FF47A73584300906068A5
:10222000B0F5827F0DD10B4600920022802120461E
:1022300000F016F870B1606D40F02000606503207A
:1022400038BD009830B1401E009020688068C043BF
:102250000006F6D5002038BD1C00002000366E01B7
:102260002DE9F8431E46914688460446089DFEF730
:1022700037FD401B351AFEF733FD07462548006839
:10228000C0F3CB30684338E0701C37D0FEF728FD30
:10229000C01BA84203D215B1009860B32CE020689F
:1022A000416821F0E00141606068B0F5827F0BD1A8
:1022B000A068B0F5004F02D0B0F5806F04D120685F
:1022C000016821F040010160A06AB0F5005F09D10A
:1022D0002068016821F4005101602068016841F420
:1022E00000510160012084F85100002084F8500062
:1022F0000320BDE8F8830025401E00902068816817
:1023000038EA010004D000214945BDD10020F0E7A2
:102310000121F9E71C0000207047FEF7E7BC000030
:1023200030B593B030216846FEF7D0F814210CA8E0
:10233000FEF7CCF81D480025016841F0805101608E
:10234000006800F0805011901948016841F4804104
:1023500001600068022400F4804011900120009088
:10236000000401908001CDE9064008AA0420A821BC
:1023700082E813000B906846FEF73CFE08B172B687
:10238000FEE70CA90F2081E831004FF4A0500F9018
:102390004FF48050109005210CA8FEF741FD002855
:1023A00001D072B6FEE713B030BD000040380240E5
:1023B000007000400248016841F4700101607047FC
:1023C00088ED00E00148FFF7A2BA0000F400002009
:1023D000F0B50268254C264D264E274F274B4FF06F
:1023E000804CA04209D0604507D0A84205D0B04239
:1023F00003D0B84201D0984204D122F0700E4A684E
:1024000042EA0E02A0421BD0604519D0A84217D064
:10241000B04215D0B84213D0984211D0184DA842FE
:102420000ED0184DA8420BD0174DA84208D0174D1A
:10243000A84205D0164DA84202D0164DA84203D19D
:1024400022F44075CA682A434D6922F080022A436B
:1024500002608A68C2620A688262A04201D0984221
:1024600001D10969016301214161F0BD0000014012
:102470000004004000080040000C0040000401403F
:102480000040014000440140004801400018004065
:10249000001C00400020004010B5846842EA03227E
:1024A00024F47F440A432243826010BD826822F0F4
:1024B00070020A4342F007018160704710B5036A59
:1024C000046A24F001040462846924F0F00444EAFC
:1024D000021423F00A020A438461026210BD10B59F
:1024E000036A23F0100303628369046A23F47043D0
:1024F00043EA023224F0A00343EA0111826101623F
:1025000010BD000070B5044600680169E26821F45E
:102510004051114301612169A068E2690843616982
:10252000114308432168CA6849F20C639A43024385
:10253000CA6020684169A26921F440711143416178
:1025400031492068884202D03049884202D1FEF7E2
:1025500011FD01E0FEF7FEFCE2690023192164256C
:102560003226B2F5004F626828D0A0FB0101930F1C
:102570009200FDF77DFE0146B0FBF5F06FF018020A
:10258000504301EB800006EB0010B0FBF5F000F0CB
:10259000F002B1FBF5F002EB0012B1FBF5F06FF0C9
:1025A0001803584301EB800006EB0010B0FBF5F078
:1025B00000F00F0021681044886070BDA0FB01018D
:1025C00092185B41FDF754FE0146B0FBF5F00201A5
:1025D000B1FBF5F06FF01803584301EB800006EBF8
:1025E000C000B0FBF5F000F0F80002EB4002B1FBD8
:1025F000F5F0584301EB800006EBC000B0FBF5F0AE
:1026000000F00700D6E70000001001400014014070
:102610002DE9F041984617460E460446069D27E0F0
:10262000681C25D02DB1FEF75BFBA0EB0800A8428B
:102630001ED920680C3050E8001F21F4D07140E80A
:102640000012002AF5D12068143050E8001F21F054
:10265000010140E80012002AF5D1202084F83D0055
:1026600084F83E00002084F83C000320BDE8F0819F
:102670002068006836EA000004D00020B842CFD0BD
:102680000020F3E70120F9E7FEE70907090E00281B
:1026900004DB00F1E02080F80014704700F00F0028
:1026A00000F1E02080F8141D7047000038B5FEF7F7
:1026B00053F8174C002204212046FEF70BFB322072
:1026C000FEF78AF9012204212046FEF703FB782059
:1026D000FEF782F900208DF8000001226946FDF71F
:1026E000FBFF01226946A420FDF7F6FF16208DF8B6
:1026F0000000012269468020FDF7EEFF0C208DF8D6
:102700000000012269468820FDF7E6FF012038BD60
:10271000000802402DE9F14F3B4E00244FF00A091A
:10272000307882B0401CC0B2B0FBF9F209FB120154
:10273000DFF8D880307009B10A2849D2012202A9F5
:102740000220FDF79EFF9DF80800010740D000F031
:102750000F0106293CD2FF208840C04340F0800092
:10276000DFF8ACB0454688F800004FF0010A0027BA
:1027700029780AFA04F001421FD03BF81400042221
:102780006946FDF77EFF9DF800009DF8011000F0FE
:102790000F0201EB0221C1F1F001A9809DF8022096
:1027A0009DF8031002F00F0201EB0221698008215D
:1027B000B1EB101F01D0AF806F80641C14F0FF04D8
:1027C000D6D0688818B9A88808B98DF8087037700D
:1027D0009DF80800C00610D198F80000010602D547
:1027E00020F0800007E04FF6FF71A8F80210A8F86B
:1027F000041000F0E00088F800003078F02801D9DB
:1028000086F80090BDE8FE8F04000020280000201C
:10281000E228000810B504460420FEF754FF0148E2
:10282000046010BD0000002070B5054600244FF480
:102830007A7603E0304600F005F8641CAC42F9D328
:1028400070BD000070B54FF0E024002265690949B1
:10285000A36909684843A1699942FCD002D2A3EB5D
:10286000010302E0A5EB010633441A440B46824201
:10287000F1D370BD00000020002201210148FEF7C5
:1028800029BA000000080240034900220A704A6881
:102890001044486070470000200000208CB02C22BB
:1028A0000C496846FDF7E0FDFEF728FAFFF738FD12
:1028B000FFF74EFBFFF706FBFFF776FCFFF740FC48
:1028C000FFF714FCA820FFF7A5FFFFF7F4F9FFF7C7
:1028D000EDFEFEE7E82800084FF04070E1EE100A38
:1028E0007047030009000000FFFF00001F001FF8F1
:1028F000E0FFFF0700F81FF8E007FF7FE0FF40BCA4
:1029000007FC3084CF017C7D58541F8418C651A623
:10291000122B000000000000000001020304060763
:102920000809000000000102030400004C2900080F
:102930000000002028000000C401000874290008DD
:1029400028000020B8070000E00100080000000097
:102950000000000000000000000000000100000076
:1029600010000000000000000024F400000000003F
:042970000000000063
:040000050800018965
:00000001FF
